{
  "contractName": "Crowdsale",
  "abi": [
    {
      "inputs": [
        {
          "internalType": "address payable",
          "name": "_ecoGamesContract",
          "type": "address"
        },
        {
          "internalType": "address payable",
          "name": "_vestingContract",
          "type": "address"
        }
      ],
      "stateMutability": "nonpayable",
      "type": "constructor"
    },
    {
      "anonymous": false,
      "inputs": [
        {
          "indexed": true,
          "internalType": "address",
          "name": "buyer",
          "type": "address"
        },
        {
          "indexed": false,
          "internalType": "uint256",
          "name": "value",
          "type": "uint256"
        },
        {
          "indexed": false,
          "internalType": "uint256",
          "name": "amount",
          "type": "uint256"
        },
        {
          "indexed": false,
          "internalType": "string",
          "name": "token",
          "type": "string"
        },
        {
          "indexed": false,
          "internalType": "uint256",
          "name": "round",
          "type": "uint256"
        }
      ],
      "name": "TokenBought",
      "type": "event"
    },
    {
      "inputs": [],
      "name": "DAItoUSDT",
      "outputs": [
        {
          "internalType": "uint256",
          "name": "",
          "type": "uint256"
        }
      ],
      "stateMutability": "view",
      "type": "function",
      "constant": true
    },
    {
      "inputs": [],
      "name": "dai",
      "outputs": [
        {
          "internalType": "address",
          "name": "",
          "type": "address"
        }
      ],
      "stateMutability": "view",
      "type": "function",
      "constant": true
    },
    {
      "inputs": [],
      "name": "ecoGamesContract",
      "outputs": [
        {
          "internalType": "contract EcoGames",
          "name": "",
          "type": "address"
        }
      ],
      "stateMutability": "view",
      "type": "function",
      "constant": true
    },
    {
      "inputs": [],
      "name": "ethPricePerDAI",
      "outputs": [
        {
          "internalType": "uint256",
          "name": "",
          "type": "uint256"
        }
      ],
      "stateMutability": "view",
      "type": "function",
      "constant": true
    },
    {
      "inputs": [
        {
          "internalType": "uint256",
          "name": "",
          "type": "uint256"
        }
      ],
      "name": "limit",
      "outputs": [
        {
          "internalType": "uint256",
          "name": "",
          "type": "uint256"
        }
      ],
      "stateMutability": "view",
      "type": "function",
      "constant": true
    },
    {
      "inputs": [],
      "name": "saleEndDate",
      "outputs": [
        {
          "internalType": "uint256",
          "name": "",
          "type": "uint256"
        }
      ],
      "stateMutability": "view",
      "type": "function",
      "constant": true
    },
    {
      "inputs": [],
      "name": "startCrowdsale",
      "outputs": [
        {
          "internalType": "bool",
          "name": "",
          "type": "bool"
        }
      ],
      "stateMutability": "view",
      "type": "function",
      "constant": true
    },
    {
      "inputs": [],
      "name": "tokensRaised",
      "outputs": [
        {
          "internalType": "uint256",
          "name": "",
          "type": "uint256"
        }
      ],
      "stateMutability": "view",
      "type": "function",
      "constant": true
    },
    {
      "inputs": [
        {
          "internalType": "uint256",
          "name": "",
          "type": "uint256"
        }
      ],
      "name": "usdRATE",
      "outputs": [
        {
          "internalType": "uint256",
          "name": "",
          "type": "uint256"
        }
      ],
      "stateMutability": "view",
      "type": "function",
      "constant": true
    },
    {
      "inputs": [],
      "name": "usdc",
      "outputs": [
        {
          "internalType": "address",
          "name": "",
          "type": "address"
        }
      ],
      "stateMutability": "view",
      "type": "function",
      "constant": true
    },
    {
      "inputs": [],
      "name": "usdt",
      "outputs": [
        {
          "internalType": "address",
          "name": "",
          "type": "address"
        }
      ],
      "stateMutability": "view",
      "type": "function",
      "constant": true
    },
    {
      "inputs": [],
      "name": "vestingContract",
      "outputs": [
        {
          "internalType": "contract TokensVesting",
          "name": "",
          "type": "address"
        }
      ],
      "stateMutability": "view",
      "type": "function",
      "constant": true
    },
    {
      "inputs": [
        {
          "internalType": "address",
          "name": "newOwner",
          "type": "address"
        }
      ],
      "name": "transferOwnership",
      "outputs": [],
      "stateMutability": "nonpayable",
      "type": "function"
    },
    {
      "inputs": [
        {
          "internalType": "uint256",
          "name": "amount",
          "type": "uint256"
        }
      ],
      "name": "buyWithDAI",
      "outputs": [],
      "stateMutability": "nonpayable",
      "type": "function"
    },
    {
      "inputs": [
        {
          "internalType": "uint256",
          "name": "amount",
          "type": "uint256"
        }
      ],
      "name": "buyWithUSDT",
      "outputs": [],
      "stateMutability": "nonpayable",
      "type": "function"
    },
    {
      "inputs": [
        {
          "internalType": "uint256",
          "name": "amount",
          "type": "uint256"
        }
      ],
      "name": "buyWithUSDC",
      "outputs": [],
      "stateMutability": "nonpayable",
      "type": "function"
    },
    {
      "inputs": [
        {
          "internalType": "uint256",
          "name": "amount",
          "type": "uint256"
        }
      ],
      "name": "buyWithETH",
      "outputs": [],
      "stateMutability": "payable",
      "type": "function",
      "payable": true
    },
    {
      "inputs": [
        {
          "internalType": "uint256",
          "name": "newethPrice",
          "type": "uint256"
        }
      ],
      "name": "setEthPrice",
      "outputs": [],
      "stateMutability": "nonpayable",
      "type": "function"
    },
    {
      "inputs": [
        {
          "internalType": "address",
          "name": "newAddress",
          "type": "address"
        }
      ],
      "name": "setUSDT",
      "outputs": [],
      "stateMutability": "nonpayable",
      "type": "function"
    },
    {
      "inputs": [
        {
          "internalType": "address",
          "name": "newAddress",
          "type": "address"
        }
      ],
      "name": "setDAI",
      "outputs": [],
      "stateMutability": "nonpayable",
      "type": "function"
    },
    {
      "inputs": [
        {
          "internalType": "address",
          "name": "newAddress",
          "type": "address"
        }
      ],
      "name": "setUSDC",
      "outputs": [],
      "stateMutability": "nonpayable",
      "type": "function"
    },
    {
      "inputs": [
        {
          "internalType": "uint256",
          "name": "newRound",
          "type": "uint256"
        }
      ],
      "name": "initiateRound",
      "outputs": [],
      "stateMutability": "nonpayable",
      "type": "function"
    },
    {
      "inputs": [
        {
          "internalType": "uint256",
          "name": "_salePeriod",
          "type": "uint256"
        }
      ],
      "name": "startSalePeriod",
      "outputs": [],
      "stateMutability": "nonpayable",
      "type": "function"
    },
    {
      "inputs": [],
      "name": "togglePauseCrowdsale",
      "outputs": [],
      "stateMutability": "nonpayable",
      "type": "function"
    },
    {
      "inputs": [],
      "name": "endCrowdsale",
      "outputs": [],
      "stateMutability": "nonpayable",
      "type": "function"
    },
    {
      "inputs": [],
      "name": "withdraw",
      "outputs": [],
      "stateMutability": "nonpayable",
      "type": "function"
    },
    {
      "inputs": [
        {
          "internalType": "uint256",
          "name": "_amount",
          "type": "uint256"
        }
      ],
      "name": "getTotalPriceInDAI",
      "outputs": [
        {
          "internalType": "uint256",
          "name": "",
          "type": "uint256"
        }
      ],
      "stateMutability": "view",
      "type": "function",
      "constant": true
    },
    {
      "inputs": [
        {
          "internalType": "address",
          "name": "account",
          "type": "address"
        }
      ],
      "name": "usdBalance",
      "outputs": [
        {
          "internalType": "uint256",
          "name": "",
          "type": "uint256"
        }
      ],
      "stateMutability": "view",
      "type": "function",
      "constant": true
    },
    {
      "inputs": [],
      "name": "getRound",
      "outputs": [
        {
          "internalType": "uint256",
          "name": "",
          "type": "uint256"
        }
      ],
      "stateMutability": "view",
      "type": "function",
      "constant": true
    }
  ],
  "bytecode": "0x600380546001600160a01b031990811673dac17f958d2ee523a2206206994597c13d831ec71782556004805490911673a0b86991c6218b36c1d19d4a2e9eb0ce3606eb481790556005805474016b175474e89094c44da98b954eedeac495271d0f6001600160a81b031990911617905560e06040526af8277896582678ac00000060809081526b03e09de2596099e2b000000060a0526b08b9633d49195a3e0c00000060c052620000b491600791906200016e565b506040805160608101825261017781526101f460208201526102ee91810191909152620000e6906008906003620001c9565b50684be4e7267b6ae00000600b5564e8d4a51000600c553480156200010a57600080fd5b506040516200268e3803806200268e8339810160408190526200012d9162000241565b600080546001600160a01b039283166001600160a01b0319918216179091556001805493909216928116929092179055600280549091163317905562000279565b828054828255906000526020600020908101928215620001b7579160200282015b82811115620001b757825182906001600160601b03169055916020019190600101906200018f565b50620001c59291506200020d565b5090565b828054828255906000526020600020908101928215620001b7579160200282015b82811115620001b7578251829061ffff16905591602001919060010190620001ea565b5b80821115620001c557600081556001016200020e565b80516001600160a01b03811681146200023c57600080fd5b919050565b600080604083850312156200025557600080fd5b620002608362000224565b9150620002706020840162000224565b90509250929050565b61240580620002896000396000f3fe6080604052600436106101c15760003560e01c80636affdc39116100f7578063a7c6016011610095578063f2fde38b11610064578063f2fde38b14610515578063f329e00114610535578063f4b9fa7514610555578063f752549c1461058257600080fd5b8063a7c6016014610495578063aeccf735146104b5578063b3e089a2146104d5578063b97dbf59146104f557600080fd5b806382299d12116100d157806382299d121461041557806394dc9cf31461042b5780639f8743f71461043e578063a39953b21461045357600080fd5b80636affdc39146103c95780636ea6b71b146103df5780636f71d49a146103f557600080fd5b8063324d2e60116101645780633e413bee1161013e5780633e413bee1461033a57806350c1b923146103675780635b1757ca146103875780635e6f60451461039c57600080fd5b8063324d2e60146102ef57806339fecb8e146103055780633ccfd60b1461032557600080fd5b80632095f2d4116101a05780632095f2d41461026d578063243bcfcb146102825780632f48ab7d146102a25780632ff81c21146102cf57600080fd5b80629f9262146101c65780630df7e3b4146101e8578063130fdf231461023f575b600080fd5b3480156101d257600080fd5b506101e66101e136600461226e565b6105c5565b005b3480156101f457600080fd5b506001546102159073ffffffffffffffffffffffffffffffffffffffff1681565b60405173ffffffffffffffffffffffffffffffffffffffff90911681526020015b60405180910390f35b34801561024b57600080fd5b5061025f61025a36600461226e565b61065c565b604051908152602001610236565b34801561027957600080fd5b506101e661069d565b34801561028e57600080fd5b5061025f61029d36600461226e565b610893565b3480156102ae57600080fd5b506003546102159073ffffffffffffffffffffffffffffffffffffffff1681565b3480156102db57600080fd5b506101e66102ea36600461226e565b6108b4565b3480156102fb57600080fd5b5061025f600c5481565b34801561031157600080fd5b506101e661032036600461226e565b610951565b34801561033157600080fd5b506101e6610e1f565b34801561034657600080fd5b506004546102159073ffffffffffffffffffffffffffffffffffffffff1681565b34801561037357600080fd5b506101e6610382366004612287565b610f92565b34801561039357600080fd5b506101e6611066565b3480156103a857600080fd5b506000546102159073ffffffffffffffffffffffffffffffffffffffff1681565b3480156103d557600080fd5b5061025f600a5481565b3480156103eb57600080fd5b5061025f60065481565b34801561040157600080fd5b506101e661041036600461226e565b611140565b34801561042157600080fd5b5061025f600b5481565b6101e661043936600461226e565b6111d2565b34801561044a57600080fd5b5061025f611612565b34801561045f57600080fd5b506005546104859074010000000000000000000000000000000000000000900460ff1681565b6040519015158152602001610236565b3480156104a157600080fd5b506101e66104b036600461226e565b611628565b3480156104c157600080fd5b506101e66104d036600461226e565b611b09565b3480156104e157600080fd5b506101e66104f0366004612287565b611fe2565b34801561050157600080fd5b506101e6610510366004612287565b6120b6565b34801561052157600080fd5b506101e6610530366004612287565b61218a565b34801561054157600080fd5b5061025f61055036600461226e565b61225e565b34801561056157600080fd5b506005546102159073ffffffffffffffffffffffffffffffffffffffff1681565b34801561058e57600080fd5b5061025f61059d366004612287565b73ffffffffffffffffffffffffffffffffffffffff166000908152600d602052604090205490565b60025473ffffffffffffffffffffffffffffffffffffffff1633146106575760405162461bcd60e51b815260206004820152602260248201527f43726f776473616c653a2043616c6c6572206973206e6f7420746865206f776e60448201527f657200000000000000000000000000000000000000000000000000000000000060648201526084015b60405180910390fd5b600b55565b6000620186a0600860095481548110610677576106776122c4565b90600052602060002001548361068d9190612322565b610697919061235f565b92915050565b60025473ffffffffffffffffffffffffffffffffffffffff16331461072a5760405162461bcd60e51b815260206004820152602260248201527f43726f776473616c653a2043616c6c6572206973206e6f7420746865206f776e60448201527f6572000000000000000000000000000000000000000000000000000000000000606482015260840161064e565b60008054604080517f8f9ee818000000000000000000000000000000000000000000000000000000008152905173ffffffffffffffffffffffffffffffffffffffff90921692638f9ee8189260048084019382900301818387803b15801561079157600080fd5b505af11580156107a5573d6000803e3d6000fd5b505050506107b1611066565b478015610890576000805460405173ffffffffffffffffffffffffffffffffffffffff9091169083908381818185875af1925050503d8060008114610812576040519150601f19603f3d011682016040523d82523d6000602084013e610817565b606091505b505090508061088e5760405162461bcd60e51b815260206004820152602860248201527f4661696c656420746f2073656e6420657468657220746f2076657374696e672060448201527f636f6e7472616374000000000000000000000000000000000000000000000000606482015260840161064e565b505b50565b600781815481106108a357600080fd5b600091825260209091200154905081565b60025473ffffffffffffffffffffffffffffffffffffffff1633146109415760405162461bcd60e51b815260206004820152602260248201527f43726f776473616c653a2043616c6c6572206973206e6f7420746865206f776e60448201527f6572000000000000000000000000000000000000000000000000000000000000606482015260840161064e565b61094b814261239a565b600a5550565b60055474010000000000000000000000000000000000000000900460ff166109bb5760405162461bcd60e51b815260206004820152601f60248201527f43726f776473616c653a2063726f776473616c65206861732070617573656400604482015260640161064e565b6007600954815481106109d0576109d06122c4565b9060005260206000200154600654826109e9919061239a565b1115610a375760405162461bcd60e51b815260206004820152601f60248201527f416d6f756e7420657863656564732073616c6520726f756e64206c696d697400604482015260640161064e565b42600a541015610aaf5760405162461bcd60e51b815260206004820152602560248201527f53616c6520726f756e64206973206f766572206f7220686173206e6f7420737460448201527f6172746564000000000000000000000000000000000000000000000000000000606482015260840161064e565b6000610aba8261065c565b9050678ac7230489e80000811015610b145760405162461bcd60e51b815260206004820152601f60248201527f42757920616d6f756e74206d7573742062652061626f76652031302055534400604482015260640161064e565b600080546009546040517face3068f00000000000000000000000000000000000000000000000000000000815233600482015260248101869052604481019190915273ffffffffffffffffffffffffffffffffffffffff9091169063ace3068f906064016020604051808303816000875af1158015610b97573d6000803e3d6000fd5b505050506040513d601f19601f82011682018060405250810190610bbb91906123ad565b905080610c0a5760405162461bcd60e51b815260206004820152601760248201527f56657374696e673a206661696c656420746f2076657374000000000000000000604482015260640161064e565b336000908152600d602052604081208054849290610c2990849061239a565b9091555050600b54336000908152600d60205260409020541115610c8f5760405162461bcd60e51b815260206004820152601b60248201527f42616c616e63652063616e6e6f74206578636565642031204574680000000000604482015260640161064e565b8260066000828254610ca1919061239a565b90915550506005546002546040517f23b872dd00000000000000000000000000000000000000000000000000000000815233600482015273ffffffffffffffffffffffffffffffffffffffff9182166024820152604481018590529116906323b872dd906064016020604051808303816000875af1158015610d27573d6000803e3d6000fd5b505050506040513d601f19601f82011682018060405250810190610d4b91906123ad565b905080610d9a5760405162461bcd60e51b815260206004820152601360248201527f5472616e7366657220686173206661696c656400000000000000000000000000604482015260640161064e565b600954604080518481526020810186905260809181018290526003918101919091527f444149000000000000000000000000000000000000000000000000000000000060a0820152606081019190915233907fc73ad12b6956a40b702e03a7947104de2abefa37ef79ba4251d829a8724882c79060c0015b60405180910390a2505050565b60025473ffffffffffffffffffffffffffffffffffffffff163314610eac5760405162461bcd60e51b815260206004820152602260248201527f43726f776473616c653a2043616c6c6572206973206e6f7420746865206f776e60448201527f6572000000000000000000000000000000000000000000000000000000000000606482015260840161064e565b4780610efa5760405162461bcd60e51b815260206004820152601860248201527f436f6e747261637420686173206e6f2062616c616e63652e0000000000000000604482015260640161064e565b604051600090339083908381818185875af1925050503d8060008114610f3c576040519150601f19603f3d011682016040523d82523d6000602084013e610f41565b606091505b505090508061088e5760405162461bcd60e51b815260206004820152601660248201527f5769746864726177616c20686173206661696c65642e00000000000000000000604482015260640161064e565b60025473ffffffffffffffffffffffffffffffffffffffff16331461101f5760405162461bcd60e51b815260206004820152602260248201527f43726f776473616c653a2043616c6c6572206973206e6f7420746865206f776e60448201527f6572000000000000000000000000000000000000000000000000000000000000606482015260840161064e565b600380547fffffffffffffffffffffffff00000000000000000000000000000000000000001673ffffffffffffffffffffffffffffffffffffffff92909216919091179055565b60025473ffffffffffffffffffffffffffffffffffffffff1633146110f35760405162461bcd60e51b815260206004820152602260248201527f43726f776473616c653a2043616c6c6572206973206e6f7420746865206f776e60448201527f6572000000000000000000000000000000000000000000000000000000000000606482015260840161064e565b600580547fffffffffffffffffffffff00ffffffffffffffffffffffffffffffffffffffff8116740100000000000000000000000000000000000000009182900460ff1615909102179055565b60025473ffffffffffffffffffffffffffffffffffffffff1633146111cd5760405162461bcd60e51b815260206004820152602260248201527f43726f776473616c653a2043616c6c6572206973206e6f7420746865206f776e60448201527f6572000000000000000000000000000000000000000000000000000000000000606482015260840161064e565b600955565b60055474010000000000000000000000000000000000000000900460ff1661123c5760405162461bcd60e51b815260206004820152601f60248201527f43726f776473616c653a2063726f776473616c65206861732070617573656400604482015260640161064e565b600760095481548110611251576112516122c4565b90600052602060002001546006548261126a919061239a565b11156112b85760405162461bcd60e51b815260206004820152601f60248201527f416d6f756e7420657863656564732073616c6520726f756e64206c696d697400604482015260640161064e565b42600a5410156113305760405162461bcd60e51b815260206004820152602560248201527f53616c6520726f756e64206973206f766572206f7220686173206e6f7420737460448201527f6172746564000000000000000000000000000000000000000000000000000000606482015260840161064e565b600061133b8261065c565b9050678ac7230489e800008110156113955760405162461bcd60e51b815260206004820152601f60248201527f42757920616d6f756e74206d7573742062652061626f76652031302055534400604482015260640161064e565b80670de0b6b3a7640000600b546113ac919061235f565b6113b69034612322565b10156114045760405162461bcd60e51b815260206004820152601460248201527f4e6f7420656e6f75676820455448732073656e74000000000000000000000000604482015260640161064e565b600080546009546040517face3068f00000000000000000000000000000000000000000000000000000000815233600482015260248101869052604481019190915273ffffffffffffffffffffffffffffffffffffffff9091169063ace3068f906064016020604051808303816000875af1158015611487573d6000803e3d6000fd5b505050506040513d601f19601f820116820180604052508101906114ab91906123ad565b9050806114fa5760405162461bcd60e51b815260206004820152601760248201527f56657374696e673a206661696c656420746f2076657374000000000000000000604482015260640161064e565b336000908152600d60205260408120805484929061151990849061239a565b9091555050600b54336000908152600d6020526040902054111561157f5760405162461bcd60e51b815260206004820152601b60248201527f42616c616e63652063616e6e6f74206578636565642031204574680000000000604482015260640161064e565b8260066000828254611591919061239a565b9091555050600954604080513481526020810186905260809181018290526003918101919091527f455448000000000000000000000000000000000000000000000000000000000060a0820152606081019190915233907fc73ad12b6956a40b702e03a7947104de2abefa37ef79ba4251d829a8724882c79060c001610e12565b60006009546001611623919061239a565b905090565b60055474010000000000000000000000000000000000000000900460ff166116925760405162461bcd60e51b815260206004820152601f60248201527f43726f776473616c653a2063726f776473616c65206861732070617573656400604482015260640161064e565b6007600954815481106116a7576116a76122c4565b9060005260206000200154600654826116c0919061239a565b111561170e5760405162461bcd60e51b815260206004820152601f60248201527f416d6f756e7420657863656564732073616c6520726f756e64206c696d697400604482015260640161064e565b42600a5410156117865760405162461bcd60e51b815260206004820152602560248201527f53616c6520726f756e64206973206f766572206f7220686173206e6f7420737460448201527f6172746564000000000000000000000000000000000000000000000000000000606482015260840161064e565b60006117918261065c565b9050678ac7230489e800008110156117eb5760405162461bcd60e51b815260206004820152601f60248201527f42757920616d6f756e74206d7573742062652061626f76652031302055534400604482015260640161064e565b600080546009546040517face3068f00000000000000000000000000000000000000000000000000000000815233600482015260248101869052604481019190915273ffffffffffffffffffffffffffffffffffffffff9091169063ace3068f906064016020604051808303816000875af115801561186e573d6000803e3d6000fd5b505050506040513d601f19601f8201168201806040525081019061189291906123ad565b9050806118e15760405162461bcd60e51b815260206004820152601760248201527f56657374696e673a206661696c656420746f2076657374000000000000000000604482015260640161064e565b336000908152600d60205260408120805484929061190090849061239a565b9091555050600b54336000908152600d602052604090205411156119665760405162461bcd60e51b815260206004820152601b60248201527f42616c616e63652063616e6e6f74206578636565642031204574680000000000604482015260640161064e565b6000600c5483611976919061235f565b9050836006600082825461198a919061239a565b90915550506003546002546040517f23b872dd00000000000000000000000000000000000000000000000000000000815233600482015273ffffffffffffffffffffffffffffffffffffffff9182166024820152604481018490529116906323b872dd906064016020604051808303816000875af1158015611a10573d6000803e3d6000fd5b505050506040513d601f19601f82011682018060405250810190611a3491906123ad565b915081611a835760405162461bcd60e51b815260206004820152601360248201527f5472616e7366657220686173206661696c656400000000000000000000000000604482015260640161064e565b600954604080518581526020810187905260809181018290526004918101919091527f555344540000000000000000000000000000000000000000000000000000000060a0820152606081019190915233907fc73ad12b6956a40b702e03a7947104de2abefa37ef79ba4251d829a8724882c79060c0015b60405180910390a250505050565b60055474010000000000000000000000000000000000000000900460ff16611b735760405162461bcd60e51b815260206004820152601f60248201527f43726f776473616c653a2063726f776473616c65206861732070617573656400604482015260640161064e565b600760095481548110611b8857611b886122c4565b906000526020600020015460065482611ba1919061239a565b1115611bef5760405162461bcd60e51b815260206004820152601f60248201527f416d6f756e7420657863656564732073616c6520726f756e64206c696d697400604482015260640161064e565b42600a541015611c675760405162461bcd60e51b815260206004820152602560248201527f53616c6520726f756e64206973206f766572206f7220686173206e6f7420737460448201527f6172746564000000000000000000000000000000000000000000000000000000606482015260840161064e565b6000611c728261065c565b9050678ac7230489e80000811015611ccc5760405162461bcd60e51b815260206004820152601f60248201527f42757920616d6f756e74206d7573742062652061626f76652031302055534400604482015260640161064e565b600080546009546040517face3068f00000000000000000000000000000000000000000000000000000000815233600482015260248101869052604481019190915273ffffffffffffffffffffffffffffffffffffffff9091169063ace3068f906064016020604051808303816000875af1158015611d4f573d6000803e3d6000fd5b505050506040513d601f19601f82011682018060405250810190611d7391906123ad565b905080611dc25760405162461bcd60e51b815260206004820152601760248201527f56657374696e673a206661696c656420746f2076657374000000000000000000604482015260640161064e565b336000908152600d602052604081208054849290611de190849061239a565b9091555050600b54336000908152600d60205260409020541115611e475760405162461bcd60e51b815260206004820152601b60248201527f42616c616e63652063616e6e6f74206578636565642031204574680000000000604482015260640161064e565b6000600c5483611e57919061235f565b90508360066000828254611e6b919061239a565b9091555050600480546002546040517f23b872dd000000000000000000000000000000000000000000000000000000008152339381019390935273ffffffffffffffffffffffffffffffffffffffff90811660248401526044830184905216906323b872dd906064016020604051808303816000875af1158015611ef3573d6000803e3d6000fd5b505050506040513d601f19601f82011682018060405250810190611f1791906123ad565b915081611f665760405162461bcd60e51b815260206004820152601360248201527f5472616e7366657220686173206661696c656400000000000000000000000000604482015260640161064e565b600954604080518581526020810187905260809181018290526004918101919091527f555344430000000000000000000000000000000000000000000000000000000060a0820152606081019190915233907fc73ad12b6956a40b702e03a7947104de2abefa37ef79ba4251d829a8724882c79060c001611afb565b60025473ffffffffffffffffffffffffffffffffffffffff16331461206f5760405162461bcd60e51b815260206004820152602260248201527f43726f776473616c653a2043616c6c6572206973206e6f7420746865206f776e60448201527f6572000000000000000000000000000000000000000000000000000000000000606482015260840161064e565b600480547fffffffffffffffffffffffff00000000000000000000000000000000000000001673ffffffffffffffffffffffffffffffffffffffff92909216919091179055565b60025473ffffffffffffffffffffffffffffffffffffffff1633146121435760405162461bcd60e51b815260206004820152602260248201527f43726f776473616c653a2043616c6c6572206973206e6f7420746865206f776e60448201527f6572000000000000000000000000000000000000000000000000000000000000606482015260840161064e565b600580547fffffffffffffffffffffffff00000000000000000000000000000000000000001673ffffffffffffffffffffffffffffffffffffffff92909216919091179055565b60025473ffffffffffffffffffffffffffffffffffffffff1633146122175760405162461bcd60e51b815260206004820152602260248201527f43726f776473616c653a2043616c6c6572206973206e6f7420746865206f776e60448201527f6572000000000000000000000000000000000000000000000000000000000000606482015260840161064e565b600280547fffffffffffffffffffffffff00000000000000000000000000000000000000001673ffffffffffffffffffffffffffffffffffffffff92909216919091179055565b600881815481106108a357600080fd5b60006020828403121561228057600080fd5b5035919050565b60006020828403121561229957600080fd5b813573ffffffffffffffffffffffffffffffffffffffff811681146122bd57600080fd5b9392505050565b7f4e487b7100000000000000000000000000000000000000000000000000000000600052603260045260246000fd5b7f4e487b7100000000000000000000000000000000000000000000000000000000600052601160045260246000fd5b6000817fffffffffffffffffffffffffffffffffffffffffffffffffffffffffffffffff048311821515161561235a5761235a6122f3565b500290565b600082612395577f4e487b7100000000000000000000000000000000000000000000000000000000600052601260045260246000fd5b500490565b80820180821115610697576106976122f3565b6000602082840312156123bf57600080fd5b815180151581146122bd57600080fdfea264697066735822122045511c1ea17a23eb1fd63194ab974e6fb162d5efd5aea769926ccef5a5c061f064736f6c63430008100033",
  "immutableReferences": {},
  "source": "// SPDX-License-Identifier: MIT\r\npragma solidity ^0.8.16;\r\n\r\nimport \"./EcoGames.sol\";\r\nimport \"./TokensVesting.sol\";\r\n\r\ncontract Crowdsale {\r\n\r\n    TokensVesting public vestingContract;\r\n    EcoGames public ecoGamesContract;\r\n\r\n    address _owner;\r\n    address public usdt = 0xdAC17F958D2ee523a2206206994597C13D831ec7;\r\n    address public usdc = 0xA0b86991c6218b36c1d19D4a2e9Eb0cE3606eB48;\r\n    address public dai = 0x6B175474E89094C44Da98b954EedeAC495271d0F;\r\n\r\n    bool public startCrowdsale = true;\r\n    uint256 public tokensRaised;\r\n\r\n    uint256[] public limit = [300000000000000000000000000, 1200000000000000000000000000, 2700000000000000000000000000]; // 300m, 1200m, 2700m\r\n    uint256[] public usdRATE = [375, 500, 750]; // 0.00375, 0.005, 0.0075\r\n    uint256 round;\r\n\r\n    uint256 public saleEndDate; // timestamp when sale round ends\r\n    uint256 public ethPricePerDAI = 1400000000000000000000; // $1400\r\n    uint256 public DAItoUSDT = 10**12; // used for decimal conversion\r\n\r\n    mapping(address=>uint256) private usdBalances;\r\n    mapping(address=>uint256) private daiBalances;\r\n\r\n    event TokenBought(address indexed buyer, uint256 value, uint256 amount, string token, uint256 round);\r\n\r\n    modifier onlyWhenNotPaused() {\r\n        require(startCrowdsale, \"Crowdsale: crowdsale has paused\");\r\n        _;\r\n    }\r\n\r\n    modifier onlyOwner() {\r\n        require(_owner == msg.sender, \"Crowdsale: Caller is not the owner\");\r\n        _;\r\n    }\r\n\r\n    constructor(\r\n        address payable _ecoGamesContract,\r\n        address payable _vestingContract\r\n    ) {\r\n        vestingContract = TokensVesting(_vestingContract);\r\n        ecoGamesContract = EcoGames(_ecoGamesContract);\r\n        _owner = msg.sender;\r\n    }\r\n\r\n    function transferOwnership(address newOwner) public onlyOwner {\r\n        _owner = newOwner;\r\n    }\r\n\r\n    function buyWithDAI(uint256 amount)\r\n        public\r\n        onlyWhenNotPaused\r\n    {\r\n        require(amount + tokensRaised <= limit[round], \"Amount exceeds sale round limit\");\r\n        require(saleEndDate >= block.timestamp, \"Sale round is over or has not started\");\r\n        \r\n        uint256 usdAmount = getTotalPriceInDAI(amount);\r\n        require(usdAmount >= 10000000000000000000, \"Buy amount must be above 10 USD\");\r\n        \r\n        bool success = vestingContract._vest(msg.sender, amount, round);\r\n        require(success, \"Vesting: failed to vest\");\r\n        usdBalances[msg.sender] += usdAmount;\r\n\r\n        require(usdBalances[msg.sender] <= ethPricePerDAI, \"Balance cannot exceed 1 Eth\");\r\n        tokensRaised += amount;\r\n\r\n        success = IERC20(dai).transferFrom(msg.sender, _owner, usdAmount);\r\n        require(success, \"Transfer has failed\");\r\n        emit TokenBought(msg.sender, usdAmount, amount, \"DAI\", round);\r\n    }\r\n\r\n    function buyWithUSDT(uint256 amount)\r\n        public\r\n        onlyWhenNotPaused\r\n    {\r\n        require(amount + tokensRaised <= limit[round], \"Amount exceeds sale round limit\");\r\n        require(saleEndDate >= block.timestamp, \"Sale round is over or has not started\");\r\n        \r\n        uint256 usdAmount = getTotalPriceInDAI(amount);\r\n        require(usdAmount >= 10000000000000000000, \"Buy amount must be above 10 USD\");\r\n\r\n        bool success = vestingContract._vest(msg.sender, amount, round);\r\n        require(success, \"Vesting: failed to vest\");\r\n        usdBalances[msg.sender] += usdAmount;\r\n\r\n        require(usdBalances[msg.sender] <= ethPricePerDAI, \"Balance cannot exceed 1 Eth\");\r\n        uint256 usdtAmount = usdAmount / DAItoUSDT;\r\n        tokensRaised += amount;\r\n\r\n        success = IERC20(usdt).transferFrom(msg.sender, _owner, usdtAmount);\r\n        require(success, \"Transfer has failed\");\r\n        emit TokenBought(msg.sender, usdAmount, amount, \"USDT\", round);\r\n    }\r\n\r\n    function buyWithUSDC(uint256 amount)\r\n        public\r\n        onlyWhenNotPaused\r\n    {\r\n        require(amount + tokensRaised <= limit[round], \"Amount exceeds sale round limit\");\r\n        require(saleEndDate >= block.timestamp, \"Sale round is over or has not started\");\r\n        \r\n        uint256 usdAmount = getTotalPriceInDAI(amount);\r\n        require(usdAmount >= 10000000000000000000, \"Buy amount must be above 10 USD\");\r\n\r\n        bool success = vestingContract._vest(msg.sender, amount, round);\r\n        require(success, \"Vesting: failed to vest\");\r\n        usdBalances[msg.sender] += usdAmount;\r\n\r\n        require(usdBalances[msg.sender] <= ethPricePerDAI, \"Balance cannot exceed 1 Eth\");\r\n        uint256 usdtAmount = usdAmount / DAItoUSDT;\r\n        tokensRaised += amount;\r\n\r\n        success = IERC20(usdc).transferFrom(msg.sender, _owner, usdtAmount);\r\n        require(success, \"Transfer has failed\");\r\n        emit TokenBought(msg.sender, usdAmount, amount, \"USDC\", round);\r\n    }\r\n    \r\n    function buyWithETH(uint256 amount)\r\n        public payable onlyWhenNotPaused\r\n    {\r\n        require(amount + tokensRaised <= limit[round], \"Amount exceeds sale round limit\");\r\n        require(saleEndDate >= block.timestamp, \"Sale round is over or has not started\");\r\n\r\n        uint256 usdAmount = getTotalPriceInDAI(amount);\r\n        require(usdAmount >= 10000000000000000000, \"Buy amount must be above 10 USD\");\r\n        require((msg.value * (ethPricePerDAI / 1 ether)) >= usdAmount, \"Not enough ETHs sent\");\r\n\r\n        bool success = vestingContract._vest(msg.sender, amount, round);\r\n        require(success, \"Vesting: failed to vest\");\r\n        \r\n        usdBalances[msg.sender] += usdAmount;\r\n        require(usdBalances[msg.sender] <= ethPricePerDAI, \"Balance cannot exceed 1 Eth\");\r\n\r\n        tokensRaised += amount;\r\n        emit TokenBought(msg.sender, msg.value, amount, \"ETH\", round);\r\n    }\r\n\r\n    function setEthPrice(uint256 newethPrice) public onlyOwner {\r\n        ethPricePerDAI = newethPrice;\r\n    }\r\n\r\n    function setUSDT(address newAddress) public onlyOwner {\r\n        usdt = newAddress;\r\n    }\r\n\r\n    function setDAI(address newAddress) public onlyOwner {\r\n        dai = newAddress;\r\n    }\r\n\r\n    function setUSDC(address newAddress) public onlyOwner {\r\n        usdc = newAddress;\r\n    }\r\n\r\n    function initiateRound(uint256 newRound) public onlyOwner {\r\n        round = newRound;\r\n    }\r\n\r\n    function startSalePeriod(uint256 _salePeriod) public onlyOwner {\r\n        saleEndDate = block.timestamp + _salePeriod;\r\n    }\r\n\r\n    function togglePauseCrowdsale() public onlyOwner {\r\n        startCrowdsale = !startCrowdsale;\r\n    }\r\n\r\n    function endCrowdsale() public onlyOwner {\r\n        vestingContract.initiateVesting();\r\n        togglePauseCrowdsale();\r\n        uint256 bal = address(this).balance;\r\n        if (bal > 0) {\r\n            (bool success, ) = payable(vestingContract).call{value: bal}(\"\");\r\n            require(success, \"Failed to send ether to vesting contract\");\r\n        }\r\n    }\r\n\r\n    function withdraw() public onlyOwner {\r\n        uint256 bal = address(this).balance;\r\n        require(bal > 0, \"Contract has no balance.\");\r\n        (bool success, ) = payable(msg.sender).call{value: bal}(\"\");\r\n        require(success, \"Withdrawal has failed.\");\r\n    }\r\n\r\n    function getTotalPriceInDAI(uint256 _amount) \r\n        public view returns (uint256) \r\n    {\r\n        return (_amount * usdRATE[round]) / 100000;\r\n    }\r\n\r\n    function usdBalance(address account) public view returns (uint256) {\r\n        return usdBalances[account];\r\n    }\r\n\r\n    function getRound() public view returns (uint256) {\r\n        return round + 1;\r\n    }\r\n\r\n}",
  "sourcePath": "C:\\Users\\Administrator\\Desktop\\ecogames\\contracts\\CrowdSale.sol",
  "compiler": {
    "name": "solc",
    "version": "0.8.16+commit.07a7930e.Emscripten.clang"
  },
  "schemaVersion": "3.4.10",
  "updatedAt": "2022-10-25T04:47:39.434Z",
  "networkType": "ethereum",
  "devdoc": {
    "kind": "dev",
    "methods": {},
    "version": 1
  },
  "userdoc": {
    "kind": "user",
    "methods": {},
    "version": 1
  }
}