{
  "contractName": "EcoGames",
  "abi": [
    {
      "inputs": [],
      "stateMutability": "nonpayable",
      "type": "constructor"
    },
    {
      "anonymous": false,
      "inputs": [
        {
          "indexed": true,
          "internalType": "address",
          "name": "owner",
          "type": "address"
        },
        {
          "indexed": true,
          "internalType": "address",
          "name": "spender",
          "type": "address"
        },
        {
          "indexed": false,
          "internalType": "uint256",
          "name": "value",
          "type": "uint256"
        }
      ],
      "name": "Approval",
      "type": "event"
    },
    {
      "anonymous": false,
      "inputs": [
        {
          "indexed": true,
          "internalType": "address",
          "name": "from",
          "type": "address"
        },
        {
          "indexed": true,
          "internalType": "address",
          "name": "to",
          "type": "address"
        },
        {
          "indexed": false,
          "internalType": "uint256",
          "name": "value",
          "type": "uint256"
        }
      ],
      "name": "Transfer",
      "type": "event"
    },
    {
      "inputs": [
        {
          "internalType": "address",
          "name": "owner",
          "type": "address"
        },
        {
          "internalType": "address",
          "name": "spender",
          "type": "address"
        }
      ],
      "name": "allowance",
      "outputs": [
        {
          "internalType": "uint256",
          "name": "",
          "type": "uint256"
        }
      ],
      "stateMutability": "view",
      "type": "function"
    },
    {
      "inputs": [
        {
          "internalType": "address",
          "name": "spender",
          "type": "address"
        },
        {
          "internalType": "uint256",
          "name": "amount",
          "type": "uint256"
        }
      ],
      "name": "approve",
      "outputs": [
        {
          "internalType": "bool",
          "name": "",
          "type": "bool"
        }
      ],
      "stateMutability": "nonpayable",
      "type": "function"
    },
    {
      "inputs": [
        {
          "internalType": "address",
          "name": "account",
          "type": "address"
        }
      ],
      "name": "balanceOf",
      "outputs": [
        {
          "internalType": "uint256",
          "name": "",
          "type": "uint256"
        }
      ],
      "stateMutability": "view",
      "type": "function"
    },
    {
      "inputs": [],
      "name": "decimals",
      "outputs": [
        {
          "internalType": "uint8",
          "name": "",
          "type": "uint8"
        }
      ],
      "stateMutability": "view",
      "type": "function"
    },
    {
      "inputs": [
        {
          "internalType": "address",
          "name": "spender",
          "type": "address"
        },
        {
          "internalType": "uint256",
          "name": "subtractedValue",
          "type": "uint256"
        }
      ],
      "name": "decreaseAllowance",
      "outputs": [
        {
          "internalType": "bool",
          "name": "",
          "type": "bool"
        }
      ],
      "stateMutability": "nonpayable",
      "type": "function"
    },
    {
      "inputs": [
        {
          "internalType": "address",
          "name": "spender",
          "type": "address"
        },
        {
          "internalType": "uint256",
          "name": "addedValue",
          "type": "uint256"
        }
      ],
      "name": "increaseAllowance",
      "outputs": [
        {
          "internalType": "bool",
          "name": "",
          "type": "bool"
        }
      ],
      "stateMutability": "nonpayable",
      "type": "function"
    },
    {
      "inputs": [],
      "name": "name",
      "outputs": [
        {
          "internalType": "string",
          "name": "",
          "type": "string"
        }
      ],
      "stateMutability": "view",
      "type": "function"
    },
    {
      "inputs": [],
      "name": "symbol",
      "outputs": [
        {
          "internalType": "string",
          "name": "",
          "type": "string"
        }
      ],
      "stateMutability": "view",
      "type": "function"
    },
    {
      "inputs": [],
      "name": "totalBurnt",
      "outputs": [
        {
          "internalType": "uint256",
          "name": "",
          "type": "uint256"
        }
      ],
      "stateMutability": "view",
      "type": "function"
    },
    {
      "inputs": [],
      "name": "totalSupply",
      "outputs": [
        {
          "internalType": "uint256",
          "name": "",
          "type": "uint256"
        }
      ],
      "stateMutability": "view",
      "type": "function"
    },
    {
      "inputs": [
        {
          "internalType": "address",
          "name": "to",
          "type": "address"
        },
        {
          "internalType": "uint256",
          "name": "amount",
          "type": "uint256"
        }
      ],
      "name": "transfer",
      "outputs": [
        {
          "internalType": "bool",
          "name": "",
          "type": "bool"
        }
      ],
      "stateMutability": "nonpayable",
      "type": "function"
    },
    {
      "inputs": [
        {
          "internalType": "address",
          "name": "from",
          "type": "address"
        },
        {
          "internalType": "address",
          "name": "to",
          "type": "address"
        },
        {
          "internalType": "uint256",
          "name": "amount",
          "type": "uint256"
        }
      ],
      "name": "transferFrom",
      "outputs": [
        {
          "internalType": "bool",
          "name": "",
          "type": "bool"
        }
      ],
      "stateMutability": "nonpayable",
      "type": "function"
    },
    {
      "stateMutability": "payable",
      "type": "receive"
    },
    {
      "inputs": [],
      "name": "burn",
      "outputs": [
        {
          "internalType": "bool",
          "name": "",
          "type": "bool"
        }
      ],
      "stateMutability": "nonpayable",
      "type": "function"
    },
    {
      "inputs": [
        {
          "internalType": "address",
          "name": "newOwner",
          "type": "address"
        }
      ],
      "name": "transferOwnership",
      "outputs": [
        {
          "internalType": "bool",
          "name": "",
          "type": "bool"
        }
      ],
      "stateMutability": "nonpayable",
      "type": "function"
    }
  ],
  "bytecode": "0x60806040523480156200001157600080fd5b506040518060400160405280600981526020016845636f2047616d657360b81b8152506040518060400160405280600381526020016245474160e81b81525081600390816200006191906200021c565b5060046200007082826200021c565b50505062000091336b26c62ad77dc602dae0000000620000ad60201b60201c565b600580546001600160a01b031916331790554260075562000310565b6001600160a01b038216620001085760405162461bcd60e51b815260206004820152601f60248201527f45524332303a206d696e7420746f20746865207a65726f206164647265737300604482015260640160405180910390fd5b80600260008282546200011c9190620002e8565b90915550506001600160a01b038216600081815260208181526040808320805486019055518481527fddf252ad1be2c89b69c2b068fc378daa952ba7f163c4a11628f55a4df523b3ef910160405180910390a35050565b505050565b634e487b7160e01b600052604160045260246000fd5b600181811c90821680620001a357607f821691505b602082108103620001c457634e487b7160e01b600052602260045260246000fd5b50919050565b601f8211156200017357600081815260208120601f850160051c81016020861015620001f35750805b601f850160051c820191505b818110156200021457828155600101620001ff565b505050505050565b81516001600160401b0381111562000238576200023862000178565b62000250816200024984546200018e565b84620001ca565b602080601f8311600181146200028857600084156200026f5750858301515b600019600386901b1c1916600185901b17855562000214565b600085815260208120601f198616915b82811015620002b95788860151825594840194600190910190840162000298565b5085821015620002d85787850151600019600388901b60f8161c191681555b5050505050600190811b01905550565b808201808211156200030a57634e487b7160e01b600052601160045260246000fd5b92915050565b61102180620003206000396000f3fe6080604052600436106100e15760003560e01c806370a082311161007f578063a457c2d711610059578063a457c2d7146102fb578063a9059cbb1461031b578063dd62ed3e1461033b578063f2fde38b1461038e57600080fd5b806370a082311461028d57806395d89b41146102d0578063966ff650146102e557600080fd5b806323b872dd116100bb57806323b872dd1461021c578063313ce5671461023c578063395093511461025857806344df8e701461027857600080fd5b806306fdde03146101a2578063095ea7b3146101cd57806318160ddd146101fd57600080fd5b3661019d5760055460405160009173ffffffffffffffffffffffffffffffffffffffff169034908381818185875af1925050503d8060008114610140576040519150601f19603f3d011682016040523d82523d6000602084013e610145565b606091505b505090508061019b5760405162461bcd60e51b815260206004820152601460248201527f5472616e7366657220686173206661696c65642e00000000000000000000000060448201526064015b60405180910390fd5b005b600080fd5b3480156101ae57600080fd5b506101b76103ae565b6040516101c49190610e0e565b60405180910390f35b3480156101d957600080fd5b506101ed6101e8366004610ea3565b610440565b60405190151581526020016101c4565b34801561020957600080fd5b506002545b6040519081526020016101c4565b34801561022857600080fd5b506101ed610237366004610ecd565b61045a565b34801561024857600080fd5b50604051601281526020016101c4565b34801561026457600080fd5b506101ed610273366004610ea3565b61047e565b34801561028457600080fd5b506101ed6104ca565b34801561029957600080fd5b5061020e6102a8366004610f09565b73ffffffffffffffffffffffffffffffffffffffff1660009081526020819052604090205490565b3480156102dc57600080fd5b506101b7610679565b3480156102f157600080fd5b5061020e60065481565b34801561030757600080fd5b506101ed610316366004610ea3565b610688565b34801561032757600080fd5b506101ed610336366004610ea3565b61073f565b34801561034757600080fd5b5061020e610356366004610f2b565b73ffffffffffffffffffffffffffffffffffffffff918216600090815260016020908152604080832093909416825291909152205490565b34801561039a57600080fd5b506101ed6103a9366004610f09565b61074d565b6060600380546103bd90610f5e565b80601f01602080910402602001604051908101604052809291908181526020018280546103e990610f5e565b80156104365780601f1061040b57610100808354040283529160200191610436565b820191906000526020600020905b81548152906001019060200180831161041957829003601f168201915b5050505050905090565b60003361044e818585610828565b60019150505b92915050565b6000336104688582856109a8565b610473858585610a65565b506001949350505050565b33600081815260016020908152604080832073ffffffffffffffffffffffffffffffffffffffff8716845290915281205490919061044e90829086906104c5908790610fb1565b610828565b60055460009073ffffffffffffffffffffffffffffffffffffffff16331461055a5760405162461bcd60e51b815260206004820152602260248201527f45636f2047616d65733a2043616c6c6572206973206e6f7420746865206f776e60448201527f65720000000000000000000000000000000000000000000000000000000000006064820152608401610192565b4260075411156105ac5760405162461bcd60e51b815260206004820152601960248201527f4275726e206461746520686173206e6f742072656163686564000000000000006044820152606401610192565b60006a295be96e64066972000000905080600660008282546105ce9190610fb1565b90915550506006546b09b18ab5df7180b6b800000010156106575760405162461bcd60e51b815260206004820152602a60248201527f546f74616c206275726e742063616e6e6f742065786365656420332062696c6c60448201527f696f6e20746f6b656e73000000000000000000000000000000000000000000006064820152608401610192565b6106613382610c86565b61066e4262278d00610fb1565b600755506001919050565b6060600480546103bd90610f5e565b33600081815260016020908152604080832073ffffffffffffffffffffffffffffffffffffffff87168452909152812054909190838110156107325760405162461bcd60e51b815260206004820152602560248201527f45524332303a2064656372656173656420616c6c6f77616e63652062656c6f7760448201527f207a65726f0000000000000000000000000000000000000000000000000000006064820152608401610192565b6104738286868403610828565b60003361044e818585610a65565b60055460009073ffffffffffffffffffffffffffffffffffffffff1633146107dd5760405162461bcd60e51b815260206004820152602260248201527f45636f2047616d65733a2043616c6c6572206973206e6f7420746865206f776e60448201527f65720000000000000000000000000000000000000000000000000000000000006064820152608401610192565b50600580547fffffffffffffffffffffffff00000000000000000000000000000000000000001673ffffffffffffffffffffffffffffffffffffffff92909216919091179055600190565b73ffffffffffffffffffffffffffffffffffffffff83166108b05760405162461bcd60e51b8152602060048201526024808201527f45524332303a20617070726f76652066726f6d20746865207a65726f2061646460448201527f72657373000000000000000000000000000000000000000000000000000000006064820152608401610192565b73ffffffffffffffffffffffffffffffffffffffff82166109395760405162461bcd60e51b815260206004820152602260248201527f45524332303a20617070726f766520746f20746865207a65726f20616464726560448201527f73730000000000000000000000000000000000000000000000000000000000006064820152608401610192565b73ffffffffffffffffffffffffffffffffffffffff83811660008181526001602090815260408083209487168084529482529182902085905590518481527f8c5be1e5ebec7d5bd14f71427d1e84f3dd0314c0f7b2291e5b200ac8c7c3b92591015b60405180910390a3505050565b73ffffffffffffffffffffffffffffffffffffffff8381166000908152600160209081526040808320938616835292905220547fffffffffffffffffffffffffffffffffffffffffffffffffffffffffffffffff8114610a5f5781811015610a525760405162461bcd60e51b815260206004820152601d60248201527f45524332303a20696e73756666696369656e7420616c6c6f77616e63650000006044820152606401610192565b610a5f8484848403610828565b50505050565b73ffffffffffffffffffffffffffffffffffffffff8316610aee5760405162461bcd60e51b815260206004820152602560248201527f45524332303a207472616e736665722066726f6d20746865207a65726f20616460448201527f64726573730000000000000000000000000000000000000000000000000000006064820152608401610192565b73ffffffffffffffffffffffffffffffffffffffff8216610b775760405162461bcd60e51b815260206004820152602360248201527f45524332303a207472616e7366657220746f20746865207a65726f206164647260448201527f65737300000000000000000000000000000000000000000000000000000000006064820152608401610192565b73ffffffffffffffffffffffffffffffffffffffff831660009081526020819052604090205481811015610c135760405162461bcd60e51b815260206004820152602660248201527f45524332303a207472616e7366657220616d6f756e742065786365656473206260448201527f616c616e636500000000000000000000000000000000000000000000000000006064820152608401610192565b73ffffffffffffffffffffffffffffffffffffffff848116600081815260208181526040808320878703905593871680835291849020805487019055925185815290927fddf252ad1be2c89b69c2b068fc378daa952ba7f163c4a11628f55a4df523b3ef910160405180910390a3610a5f565b73ffffffffffffffffffffffffffffffffffffffff8216610d0f5760405162461bcd60e51b815260206004820152602160248201527f45524332303a206275726e2066726f6d20746865207a65726f2061646472657360448201527f73000000000000000000000000000000000000000000000000000000000000006064820152608401610192565b73ffffffffffffffffffffffffffffffffffffffff821660009081526020819052604090205481811015610dab5760405162461bcd60e51b815260206004820152602260248201527f45524332303a206275726e20616d6f756e7420657863656564732062616c616e60448201527f63650000000000000000000000000000000000000000000000000000000000006064820152608401610192565b73ffffffffffffffffffffffffffffffffffffffff83166000818152602081815260408083208686039055600280548790039055518581529192917fddf252ad1be2c89b69c2b068fc378daa952ba7f163c4a11628f55a4df523b3ef910161099b565b600060208083528351808285015260005b81811015610e3b57858101830151858201604001528201610e1f565b5060006040828601015260407fffffffffffffffffffffffffffffffffffffffffffffffffffffffffffffffe0601f8301168501019250505092915050565b803573ffffffffffffffffffffffffffffffffffffffff81168114610e9e57600080fd5b919050565b60008060408385031215610eb657600080fd5b610ebf83610e7a565b946020939093013593505050565b600080600060608486031215610ee257600080fd5b610eeb84610e7a565b9250610ef960208501610e7a565b9150604084013590509250925092565b600060208284031215610f1b57600080fd5b610f2482610e7a565b9392505050565b60008060408385031215610f3e57600080fd5b610f4783610e7a565b9150610f5560208401610e7a565b90509250929050565b600181811c90821680610f7257607f821691505b602082108103610fab577f4e487b7100000000000000000000000000000000000000000000000000000000600052602260045260246000fd5b50919050565b80820180821115610454577f4e487b7100000000000000000000000000000000000000000000000000000000600052601160045260246000fdfea2646970667358221220debc1910b592c4c447b2b05fad36a6ec32023ca7925c3840aee4063abd3a501f64736f6c63430008100033",
  "immutableReferences": {},
  "source": "// SPDX-License-Identifier: MIT\r\n\r\n/**\r\n                  \r\n                                                                     \r\n                                                              \r\n                                      \r\n                                                                         \r\n                                                                       \r\n                             \r\n*/\r\n\r\npragma solidity ^0.8.16;\r\n\r\nimport \"./ERC20/ERC20.sol\";\r\n\r\ncontract EcoGames is ERC20 {\r\n\r\n    address owner;\r\n    uint256 public totalBurnt;\r\n    uint256 burnDate;\r\n\r\n    constructor() ERC20(\"Eco Games\", \"EGA\") {\r\n        _mint(msg.sender, 12000000000000000000000000000); \r\n        owner = msg.sender;\r\n        burnDate = block.timestamp;\r\n    }\r\n\r\n    function burn() public returns (bool) {\r\n        require(msg.sender == owner, \"Eco Games: Caller is not the owner\");\r\n        require(burnDate <= block.timestamp, \"Burn date has not reached\");\r\n        uint256 amount = 50000000000000000000000000;\r\n        totalBurnt += amount;\r\n        require(totalBurnt <= 3000000000000000000000000000, \"Total burnt cannot exceed 3 billion tokens\");\r\n        _burn(msg.sender, amount);\r\n        burnDate = 30 days + block.timestamp;\r\n        return true;\r\n    }\r\n\r\n    function transferOwnership(address newOwner) public returns (bool) {\r\n        require(owner == msg.sender, \"Eco Games: Caller is not the owner\");\r\n        owner = newOwner;\r\n        return true;\r\n    }\r\n\r\n    receive() external payable {\r\n        (bool success, ) = payable(owner).call{value: msg.value}(\"\");\r\n        require(success, \"Transfer has failed.\");\r\n    }\r\n}\r\n",
  "sourcePath": "C:\\Users\\Administrator\\Desktop\\ecogames\\contracts\\EcoGames.sol",
  "compiler": {
    "name": "solc",
    "version": "0.8.16+commit.07a7930e.Emscripten.clang"
  },
  "schemaVersion": "3.4.10",
  "updatedAt": "2022-10-25T04:46:13.438Z",
  "devdoc": {
    "kind": "dev",
    "methods": {
      "allowance(address,address)": {
        "details": "See {IERC20-allowance}."
      },
      "approve(address,uint256)": {
        "details": "See {IERC20-approve}. NOTE: If `amount` is the maximum `uint256`, the allowance is not updated on `transferFrom`. This is semantically equivalent to an infinite approval. Requirements: - `spender` cannot be the zero address."
      },
      "balanceOf(address)": {
        "details": "See {IERC20-balanceOf}."
      },
      "decimals()": {
        "details": "Returns the number of decimals used to get its user representation. For example, if `decimals` equals `2`, a balance of `505` tokens should be displayed to a user as `5.05` (`505 / 10 ** 2`). Tokens usually opt for a value of 18, imitating the relationship between Ether and Wei. This is the value {ERC20} uses, unless this function is overridden; NOTE: This information is only used for _display_ purposes: it in no way affects any of the arithmetic of the contract, including {IERC20-balanceOf} and {IERC20-transfer}."
      },
      "decreaseAllowance(address,uint256)": {
        "details": "Atomically decreases the allowance granted to `spender` by the caller. This is an alternative to {approve} that can be used as a mitigation for problems described in {IERC20-approve}. Emits an {Approval} event indicating the updated allowance. Requirements: - `spender` cannot be the zero address. - `spender` must have allowance for the caller of at least `subtractedValue`."
      },
      "increaseAllowance(address,uint256)": {
        "details": "Atomically increases the allowance granted to `spender` by the caller. This is an alternative to {approve} that can be used as a mitigation for problems described in {IERC20-approve}. Emits an {Approval} event indicating the updated allowance. Requirements: - `spender` cannot be the zero address."
      },
      "name()": {
        "details": "Returns the name of the token."
      },
      "symbol()": {
        "details": "Returns the symbol of the token, usually a shorter version of the name."
      },
      "totalSupply()": {
        "details": "See {IERC20-totalSupply}."
      },
      "transfer(address,uint256)": {
        "details": "See {IERC20-transfer}. Requirements: - `to` cannot be the zero address. - the caller must have a balance of at least `amount`."
      },
      "transferFrom(address,address,uint256)": {
        "details": "See {IERC20-transferFrom}. Emits an {Approval} event indicating the updated allowance. This is not required by the EIP. See the note at the beginning of {ERC20}. NOTE: Does not update the allowance if the current allowance is the maximum `uint256`. Requirements: - `from` and `to` cannot be the zero address. - `from` must have a balance of at least `amount`. - the caller must have allowance for ``from``'s tokens of at least `amount`."
      }
    },
    "version": 1
  },
  "userdoc": {
    "kind": "user",
    "methods": {},
    "version": 1
  }
}