{
  "contractName": "TokensVesting",
  "abi": [
    {
      "inputs": [
        {
          "internalType": "address payable",
          "name": "_ecoGamesContract",
          "type": "address"
        }
      ],
      "stateMutability": "nonpayable",
      "type": "constructor"
    },
    {
      "anonymous": false,
      "inputs": [
        {
          "indexed": false,
          "internalType": "address",
          "name": "",
          "type": "address"
        },
        {
          "indexed": false,
          "internalType": "uint256",
          "name": "",
          "type": "uint256"
        }
      ],
      "name": "Received",
      "type": "event"
    },
    {
      "anonymous": false,
      "inputs": [
        {
          "indexed": true,
          "internalType": "address",
          "name": "holder",
          "type": "address"
        },
        {
          "indexed": false,
          "internalType": "uint256",
          "name": "amount",
          "type": "uint256"
        }
      ],
      "name": "UnlockVest",
      "type": "event"
    },
    {
      "inputs": [],
      "name": "crowdsaleAddress",
      "outputs": [
        {
          "internalType": "address",
          "name": "",
          "type": "address"
        }
      ],
      "stateMutability": "view",
      "type": "function",
      "constant": true
    },
    {
      "inputs": [],
      "name": "ecoGamesContract",
      "outputs": [
        {
          "internalType": "contract EcoGames",
          "name": "",
          "type": "address"
        }
      ],
      "stateMutability": "view",
      "type": "function",
      "constant": true
    },
    {
      "inputs": [],
      "name": "initialPeriod",
      "outputs": [
        {
          "internalType": "uint256",
          "name": "",
          "type": "uint256"
        }
      ],
      "stateMutability": "view",
      "type": "function",
      "constant": true
    },
    {
      "inputs": [],
      "name": "vestPeriod",
      "outputs": [
        {
          "internalType": "uint256",
          "name": "",
          "type": "uint256"
        }
      ],
      "stateMutability": "view",
      "type": "function",
      "constant": true
    },
    {
      "inputs": [
        {
          "internalType": "address",
          "name": "",
          "type": "address"
        }
      ],
      "name": "vests",
      "outputs": [
        {
          "internalType": "uint256",
          "name": "totalVest",
          "type": "uint256"
        },
        {
          "internalType": "uint256",
          "name": "round1",
          "type": "uint256"
        },
        {
          "internalType": "uint256",
          "name": "round2",
          "type": "uint256"
        },
        {
          "internalType": "uint256",
          "name": "round3",
          "type": "uint256"
        },
        {
          "internalType": "uint256",
          "name": "lockedAmount",
          "type": "uint256"
        },
        {
          "internalType": "uint256",
          "name": "unlockedAmount",
          "type": "uint256"
        },
        {
          "internalType": "uint256",
          "name": "unlockDate",
          "type": "uint256"
        }
      ],
      "stateMutability": "view",
      "type": "function",
      "constant": true
    },
    {
      "stateMutability": "payable",
      "type": "receive",
      "payable": true
    },
    {
      "inputs": [
        {
          "internalType": "address",
          "name": "_crowdsaleAddress",
          "type": "address"
        }
      ],
      "name": "setCrowdsaleAddress",
      "outputs": [],
      "stateMutability": "nonpayable",
      "type": "function"
    },
    {
      "inputs": [
        {
          "internalType": "address",
          "name": "newOwner",
          "type": "address"
        }
      ],
      "name": "transferOwnership",
      "outputs": [],
      "stateMutability": "nonpayable",
      "type": "function"
    },
    {
      "inputs": [],
      "name": "initiateVesting",
      "outputs": [],
      "stateMutability": "nonpayable",
      "type": "function"
    },
    {
      "inputs": [
        {
          "internalType": "address",
          "name": "to",
          "type": "address"
        },
        {
          "internalType": "uint256",
          "name": "amount",
          "type": "uint256"
        },
        {
          "internalType": "uint256",
          "name": "round",
          "type": "uint256"
        }
      ],
      "name": "_vest",
      "outputs": [
        {
          "internalType": "bool",
          "name": "",
          "type": "bool"
        }
      ],
      "stateMutability": "nonpayable",
      "type": "function"
    },
    {
      "inputs": [],
      "name": "initialUnlock",
      "outputs": [
        {
          "internalType": "bool",
          "name": "",
          "type": "bool"
        }
      ],
      "stateMutability": "nonpayable",
      "type": "function"
    },
    {
      "inputs": [],
      "name": "monthlyUnlock",
      "outputs": [
        {
          "internalType": "bool",
          "name": "",
          "type": "bool"
        }
      ],
      "stateMutability": "nonpayable",
      "type": "function"
    },
    {
      "inputs": [
        {
          "internalType": "uint256",
          "name": "newPeriod",
          "type": "uint256"
        }
      ],
      "name": "setInitialPeriod",
      "outputs": [],
      "stateMutability": "nonpayable",
      "type": "function"
    },
    {
      "inputs": [
        {
          "internalType": "uint256",
          "name": "newPeriod",
          "type": "uint256"
        }
      ],
      "name": "setVestPeriod",
      "outputs": [],
      "stateMutability": "nonpayable",
      "type": "function"
    },
    {
      "inputs": [],
      "name": "getMyVest",
      "outputs": [
        {
          "components": [
            {
              "internalType": "uint256",
              "name": "totalVest",
              "type": "uint256"
            },
            {
              "internalType": "uint256",
              "name": "round1",
              "type": "uint256"
            },
            {
              "internalType": "uint256",
              "name": "round2",
              "type": "uint256"
            },
            {
              "internalType": "uint256",
              "name": "round3",
              "type": "uint256"
            },
            {
              "internalType": "uint256",
              "name": "lockedAmount",
              "type": "uint256"
            },
            {
              "internalType": "uint256",
              "name": "unlockedAmount",
              "type": "uint256"
            },
            {
              "internalType": "uint256",
              "name": "unlockDate",
              "type": "uint256"
            }
          ],
          "internalType": "struct TokensVesting.vestCore",
          "name": "",
          "type": "tuple"
        }
      ],
      "stateMutability": "view",
      "type": "function",
      "constant": true
    },
    {
      "inputs": [],
      "name": "withdraw",
      "outputs": [],
      "stateMutability": "nonpayable",
      "type": "function"
    }
  ],
  "bytecode": "0x60806040526276a70060045562278d0060055534801561001e57600080fd5b506040516115cd3803806115cd83398101604081905261003d91610070565b60028054336001600160a01b031991821617909155600080549091166001600160a01b03929092169190911790556100a0565b60006020828403121561008257600080fd5b81516001600160a01b038116811461009957600080fd5b9392505050565b61151e806100af6000396000f3fe6080604052600436106100ec5760003560e01c80635c712bc01161008a578063d98c4a4611610059578063d98c4a4614610377578063dc5668aa1461039b578063dd3a153b146103bb578063f2fde38b146103d157600080fd5b80635c712bc01461029b5780638f9ee8181461032d578063ace3068f14610342578063c3f368af1461036257600080fd5b80632f0980a6116100c65780632f0980a6146101c957806331d2f891146101ee57806339edb87e1461021b5780633ccfd60b1461028657600080fd5b80630df7e3b4146101305780631f35bc401461018757806323b85414146101a957600080fd5b3661012b57604080513381523460208201527f88a5966d370b9919b20f3e2c13ff65706f196a4e32cc2c12bf57088f88525874910160405180910390a1005b600080fd5b34801561013c57600080fd5b5060005461015d9073ffffffffffffffffffffffffffffffffffffffff1681565b60405173ffffffffffffffffffffffffffffffffffffffff90911681526020015b60405180910390f35b34801561019357600080fd5b506101a76101a2366004611385565b6103f1565b005b3480156101b557600080fd5b506101a76101c43660046113a7565b6104a4565b3480156101d557600080fd5b506101de610510565b604051901515815260200161017e565b3480156101fa57600080fd5b5060015461015d9073ffffffffffffffffffffffffffffffffffffffff1681565b34801561022757600080fd5b506102306109aa565b60405161017e9190600060e082019050825182526020830151602083015260408301516040830152606083015160608301526080830151608083015260a083015160a083015260c083015160c083015292915050565b34801561029257600080fd5b506101a7610a4b565b3480156102a757600080fd5b506102f86102b6366004611385565b60066020528060005260406000206000915090508060000154908060010154908060020154908060030154908060040154908060050154908060060154905087565b604080519788526020880196909652948601939093526060850191909152608084015260a083015260c082015260e00161017e565b34801561033957600080fd5b506101a7610b9c565b34801561034e57600080fd5b506101de61035d3660046113c0565b610cfd565b34801561036e57600080fd5b506101de610ead565b34801561038357600080fd5b5061038d60045481565b60405190815260200161017e565b3480156103a757600080fd5b506101a76103b63660046113a7565b611242565b3480156103c757600080fd5b5061038d60055481565b3480156103dd57600080fd5b506101a76103ec366004611385565b6112ae565b60025473ffffffffffffffffffffffffffffffffffffffff16331461045d5760405162461bcd60e51b815260206004820181905260248201527f56657374696e673a2043616c6c6572206973206e6f7420746865206f776e657260448201526064015b60405180910390fd5b600180547fffffffffffffffffffffffff00000000000000000000000000000000000000001673ffffffffffffffffffffffffffffffffffffffff92909216919091179055565b60025473ffffffffffffffffffffffffffffffffffffffff16331461050b5760405162461bcd60e51b815260206004820181905260248201527f56657374696e673a2043616c6c6572206973206e6f7420746865206f776e65726044820152606401610454565b600555565b6001546000907501000000000000000000000000000000000000000000900460ff166105a35760405162461bcd60e51b8152602060048201526024808201527f56657374696e673a2043726f776473616c6520686173206e6f7420656e64656460448201527f20796574000000000000000000000000000000000000000000000000000000006064820152608401610454565b60015474010000000000000000000000000000000000000000900460ff161561060e5760405162461bcd60e51b815260206004820152600e60248201527f4e6f2072652d656e7472616e63790000000000000000000000000000000000006044820152606401610454565b600180547fffffffffffffffffffffff00ffffffffffffffffffffffffffffffffffffffff167401000000000000000000000000000000000000000017815533600090815260066020818152604092839020835160e08101855281548152948101549185019190915260028101549284019290925260038201546060840152600482015460808401819052600583015460a085015291015460c083015261071d5760405162461bcd60e51b815260206004820152602560248201527f496e697469616c20756e6c6f636b20686173206e6f74206265656e20636f6d7060448201527f6c657465640000000000000000000000000000000000000000000000000000006064820152608401610454565b428160c0015111156107715760405162461bcd60e51b815260206004820152601a60248201527f556e6c6f636b206461746520686173206e6f74207061737365640000000000006044820152606401610454565b6000601582608001516107849190611422565b9050808260a001818151610798919061145d565b905250608082015160a083015111156107f35760405162461bcd60e51b815260206004820152601c60248201527f416c6c2076657374732068617665206265656e20756e6c6f636b6564000000006044820152606401610454565b600080546040517fa9059cbb0000000000000000000000000000000000000000000000000000000081523360048201526024810184905273ffffffffffffffffffffffffffffffffffffffff9091169063a9059cbb906044016020604051808303816000875af115801561086b573d6000803e3d6000fd5b505050506040513d601f19601f8201168201806040525081019061088f9190611476565b9050806108de5760405162461bcd60e51b815260206004820152601360248201527f5472616e7366657220686173206661696c6564000000000000000000000000006044820152606401610454565b6005546108eb904261145d565b60c084019081523360008181526006602081815260409283902088518155908801516001820155828801516002820155606088015160038201556080880151600482015560a08801516005820155935193019290925590517fe29c0eed0ea9de538841cf57ba018708656e3a25dabf1f92ade7b299e302d3d8906109729085815260200190565b60405180910390a25050600180547fffffffffffffffffffffff00ffffffffffffffffffffffffffffffffffffffff16815592915050565b6109ea6040518060e00160405280600081526020016000815260200160008152602001600081526020016000815260200160008152602001600081525090565b5033600090815260066020818152604092839020835160e081018552815481526001820154928101929092526002810154938201939093526003830154606082015260048301546080820152600583015460a082015291015460c082015290565b60025473ffffffffffffffffffffffffffffffffffffffff163314610ab25760405162461bcd60e51b815260206004820181905260248201527f56657374696e673a2043616c6c6572206973206e6f7420746865206f776e65726044820152606401610454565b4780610b005760405162461bcd60e51b815260206004820152601860248201527f436f6e747261637420686173206e6f2062616c616e63652e00000000000000006044820152606401610454565b604051600090339083908381818185875af1925050503d8060008114610b42576040519150601f19603f3d011682016040523d82523d6000602084013e610b47565b606091505b5050905080610b985760405162461bcd60e51b815260206004820152601660248201527f5769746864726177616c20686173206661696c65642e000000000000000000006044820152606401610454565b5050565b60015473ffffffffffffffffffffffffffffffffffffffff163314610c295760405162461bcd60e51b815260206004820152603760248201527f56657374696e673a204f6e6c792063726f776473616c6520636f6e747261637460448201527f2063616e2063616c6c20746869732066756e6374696f6e0000000000000000006064820152608401610454565b6001547501000000000000000000000000000000000000000000900460ff1615610cbb5760405162461bcd60e51b815260206004820152602160248201527f546f6b656e7356657374696e673a20616c726561647920696e6974696174656460448201527f21000000000000000000000000000000000000000000000000000000000000006064820152608401610454565b600180547fffffffffffffffffffff00ffffffffffffffffffffffffffffffffffffffffff167501000000000000000000000000000000000000000000179055565b60015460009073ffffffffffffffffffffffffffffffffffffffff163314610d8d5760405162461bcd60e51b815260206004820152603760248201527f56657374696e673a204f6e6c792063726f776473616c6520636f6e747261637460448201527f2063616e2063616c6c20746869732066756e6374696f6e0000000000000000006064820152608401610454565b73ffffffffffffffffffffffffffffffffffffffff841660009081526006602052604081208054909103610e2c57600380546001810182556000919091527fc2575a0e9e593c00f959f8c92f12db2869c3395a3b0502d05e2516446f71f85b0180547fffffffffffffffffffffffff00000000000000000000000000000000000000001673ffffffffffffffffffffffffffffffffffffffff87161790555b82600003610e535783816001016000828254610e48919061145d565b90915550610e899050565b82600103610e6f5783816002016000828254610e48919061145d565b83816003016000828254610e83919061145d565b90915550505b83816000016000828254610e9d919061145d565b9091555060019695505050505050565b6001546000907501000000000000000000000000000000000000000000900460ff16610f405760405162461bcd60e51b8152602060048201526024808201527f56657374696e673a2043726f776473616c6520686173206e6f7420656e64656460448201527f20796574000000000000000000000000000000000000000000000000000000006064820152608401610454565b60015474010000000000000000000000000000000000000000900460ff1615610fab5760405162461bcd60e51b815260206004820152600e60248201527f4e6f2072652d656e7472616e63790000000000000000000000000000000000006044820152606401610454565b600180547fffffffffffffffffffffff00ffffffffffffffffffffffffffffffffffffffff167401000000000000000000000000000000000000000017815533600090815260066020818152604092839020835160e08101855281548152948101549185019190915260028101549284019290925260038201546060840152600482015460808401819052600583015460a085015291015460c0830152156110ba5760405162461bcd60e51b8152602060048201526024808201527f496e697469616c20756e6c6f636b2068617320616c7265616479206265656e2060448201527f646f6e65000000000000000000000000000000000000000000000000000000006064820152608401610454565b6000601482602001516110cd9190611422565b6110d7908261145d565b90506103e88260400151604b6110ed9190611498565b6110f79190611422565b611101908261145d565b9050600a82606001516111149190611422565b61111e908261145d565b600080546040517fa9059cbb00000000000000000000000000000000000000000000000000000000815233600482015260248101849052929350909173ffffffffffffffffffffffffffffffffffffffff9091169063a9059cbb906044016020604051808303816000875af115801561119b573d6000803e3d6000fd5b505050506040513d601f19601f820116820180604052508101906111bf9190611476565b90508061120e5760405162461bcd60e51b815260206004820152601360248201527f5472616e7366657220686173206661696c6564000000000000000000000000006044820152606401610454565b60006020840181905260408401819052606084015282516112309083906114d5565b60808401526004546108eb904261145d565b60025473ffffffffffffffffffffffffffffffffffffffff1633146112a95760405162461bcd60e51b815260206004820181905260248201527f56657374696e673a2043616c6c6572206973206e6f7420746865206f776e65726044820152606401610454565b600455565b60025473ffffffffffffffffffffffffffffffffffffffff1633146113155760405162461bcd60e51b815260206004820181905260248201527f56657374696e673a2043616c6c6572206973206e6f7420746865206f776e65726044820152606401610454565b600280547fffffffffffffffffffffffff00000000000000000000000000000000000000001673ffffffffffffffffffffffffffffffffffffffff92909216919091179055565b803573ffffffffffffffffffffffffffffffffffffffff8116811461138057600080fd5b919050565b60006020828403121561139757600080fd5b6113a08261135c565b9392505050565b6000602082840312156113b957600080fd5b5035919050565b6000806000606084860312156113d557600080fd5b6113de8461135c565b95602085013595506040909401359392505050565b7f4e487b7100000000000000000000000000000000000000000000000000000000600052601160045260246000fd5b600082611458577f4e487b7100000000000000000000000000000000000000000000000000000000600052601260045260246000fd5b500490565b80820180821115611470576114706113f3565b92915050565b60006020828403121561148857600080fd5b815180151581146113a057600080fd5b6000817fffffffffffffffffffffffffffffffffffffffffffffffffffffffffffffffff04831182151516156114d0576114d06113f3565b500290565b81810381811115611470576114706113f356fea26469706673582212200c8072a458ab849a855291b46b2ec714477d95ee60dbeaa027ccd31e96f0cbdb64736f6c63430008100033",
  "immutableReferences": {},
  "source": "// SPDX-License-Identifier: MIT\r\npragma solidity ^0.8.16;\r\n\r\nimport \"./EcoGames.sol\";\r\n\r\ncontract TokensVesting {\r\n    \r\n    event Received(address, uint);\r\n    event UnlockVest(address indexed holder, uint256 amount);\r\n\r\n    EcoGames public ecoGamesContract;\r\n    address public crowdsaleAddress;\r\n\r\n    bool locked; // against re-entrancy attacks\r\n    bool startVesting;\r\n    address owner_;\r\n    address[] vesters;\r\n\r\n    uint256 public initialPeriod = 90 days;\r\n    uint256 public vestPeriod = 30 days;\r\n\r\n    struct vestCore {\r\n        uint256 totalVest;\r\n        uint256 round1;\r\n        uint256 round2;\r\n        uint256 round3;\r\n        uint256 lockedAmount; // remaining vest after initial unlock\r\n        uint256 unlockedAmount;\r\n        uint256 unlockDate;\r\n    }\r\n\r\n    mapping(address => vestCore) public vests;\r\n\r\n    modifier onlyWhenStarted() {\r\n        require(startVesting, \"Vesting: Crowdsale has not ended yet\");\r\n        _;\r\n    }\r\n\r\n    modifier onlyCrowdsale() {\r\n        require(msg.sender == crowdsaleAddress, \"Vesting: Only crowdsale contract can call this function\");\r\n        _;\r\n    }\r\n\r\n    modifier noReentrant() {\r\n        require(!locked, \"No re-entrancy\");\r\n        locked = true;\r\n        _;\r\n        locked = false;\r\n    }\r\n\r\n    modifier onlyOwner() {\r\n        require(msg.sender == owner_, \"Vesting: Caller is not the owner\");\r\n        _;\r\n    }\r\n\r\n    constructor(address payable _ecoGamesContract) {\r\n        owner_ = msg.sender;\r\n        ecoGamesContract = EcoGames(_ecoGamesContract);\r\n    }\r\n\r\n    function setCrowdsaleAddress(address _crowdsaleAddress) public onlyOwner {\r\n        crowdsaleAddress = _crowdsaleAddress;\r\n    }\r\n\r\n    function transferOwnership(address newOwner) public onlyOwner {\r\n        owner_ = newOwner;\r\n    }\r\n    \r\n    function initiateVesting() public onlyCrowdsale {\r\n        require(!startVesting, \"TokensVesting: already initiated!\");\r\n        startVesting = true;\r\n    }\r\n\r\n    function _vest(address to, uint256 amount, uint256 round) \r\n        public onlyCrowdsale returns (bool)\r\n    {\r\n        vestCore storage vest = vests[to];\r\n        if (vest.totalVest == 0) {\r\n            vesters.push(to);\r\n        }\r\n\r\n        if (round == 0) {\r\n            vest.round1 += amount;\r\n        } else if (round == 1) {\r\n            vest.round2 += amount;\r\n        } else {\r\n            vest.round3 += amount;\r\n        }\r\n\r\n        vest.totalVest += amount;\r\n        return true;\r\n    }\r\n    \r\n    function initialUnlock() public onlyWhenStarted noReentrant returns (bool) {\r\n        \r\n        vestCore memory vest = vests[msg.sender];\r\n        require(vest.lockedAmount == 0, \"Initial unlock has already been done\");\r\n        uint256 transferAmount;\r\n\r\n        transferAmount += vest.round1 / 20; // 5%\r\n        transferAmount += vest.round2 * 75 / 1000; // 7.5%\r\n        transferAmount += vest.round3 / 10; // 10%\r\n\r\n        bool success = ecoGamesContract.transfer(msg.sender, transferAmount);\r\n        require(success, \"Transfer has failed\");\r\n\r\n        vest.round1 = 0;\r\n        vest.round2 = 0;\r\n        vest.round3 = 0;\r\n\r\n        vest.lockedAmount = vest.totalVest - transferAmount;\r\n        vest.unlockDate = block.timestamp + initialPeriod;\r\n        \r\n        vests[msg.sender] = vest;\r\n        emit UnlockVest(msg.sender, transferAmount);\r\n        return true;\r\n    }\r\n\r\n    function monthlyUnlock() public onlyWhenStarted noReentrant returns (bool) {\r\n\r\n        vestCore memory vest = vests[msg.sender];\r\n        require(vest.lockedAmount > 0, \"Initial unlock has not been completed\");\r\n        require(vest.unlockDate <= block.timestamp, \"Unlock date has not passed\");\r\n\r\n        uint256 unlockAmount = vest.lockedAmount / 21;\r\n        vest.unlockedAmount += unlockAmount;\r\n        require(vest.unlockedAmount <= vest.lockedAmount, \"All vests have been unlocked\");\r\n        \r\n        bool success = ecoGamesContract.transfer(msg.sender, unlockAmount);\r\n        require(success, \"Transfer has failed\");\r\n\r\n        vest.unlockDate = block.timestamp + vestPeriod;\r\n        vests[msg.sender] = vest;\r\n\r\n        emit UnlockVest(msg.sender, unlockAmount);\r\n        return true;\r\n    }\r\n\r\n    function setInitialPeriod(uint256 newPeriod) public onlyOwner {\r\n        initialPeriod = newPeriod;\r\n    }\r\n\r\n    function setVestPeriod(uint256 newPeriod) public onlyOwner {\r\n        vestPeriod = newPeriod;\r\n    }\r\n\r\n    function getMyVest() public view returns (vestCore memory) {\r\n        return vests[msg.sender];\r\n    }\r\n\r\n    receive() external payable {\r\n        emit Received(msg.sender, msg.value);\r\n    } \r\n\r\n    function withdraw() public onlyOwner {\r\n        uint256 bal = address(this).balance;\r\n        require(bal > 0, \"Contract has no balance.\");\r\n        (bool success, ) = payable(msg.sender).call{value: bal}(\"\");\r\n        require(success, \"Withdrawal has failed.\");\r\n    }\r\n\r\n}\r\n",
  "sourcePath": "C:\\Users\\Administrator\\Desktop\\ecogames\\contracts\\TokensVesting.sol",
  "compiler": {
    "name": "solc",
    "version": "0.8.16+commit.07a7930e.Emscripten.clang"
  },
  "schemaVersion": "3.4.10",
  "updatedAt": "2022-10-25T04:47:39.400Z",
  "networkType": "ethereum",
  "devdoc": {
    "kind": "dev",
    "methods": {},
    "version": 1
  },
  "userdoc": {
    "kind": "user",
    "methods": {},
    "version": 1
  }
}